:020000040800F2
:1000000018070020CD010008D52400082120000891
:10001000D1240008CD0A0008912500080000000046
:10002000000000000000000000000000852500081E
:10003000D10A000800000000D92400088925000822
:10004000E7010008E7010008E7010008E7010008F0
:10005000E7010008E7010008E7010008E7010008E0
:10006000E7010008E7010008E7010008E7010008D0
:10007000E7010008E7010008E7010008E7010008C0
:10008000E7010008E7010008E7010008E7010008B0
:10009000E7010008E7010008E7010008E7010008A0
:1000A000E7010008E7010008E7010008E701000890
:1000B000E7010008E7010008E7010008E701000880
:1000C000E7010008E7010008E7010008E701000870
:1000D000E7010008E7010008E7010008E701000860
:1000E000E7010008E7010008E701000800F002F856
:1000F00000F05DF814A696E8000CB244B344DA456B
:1001000001D100F054F8BAE80F000FA696E83000CD
:10011000A5EB040504EB0607AAEB0704A7F101070A
:100120004FEA15154FEA3414A4F10104AC4201D38F
:1001300000F03DF813F0010F18BFFB1A43F0010364
:1001400000F001F8DBE71847DC370000FC3700005F
:10015000103A24BF78C878C1FAD8520724BF30C8F3
:1001600030C144BF04680C60704700007047000055
:100170000023002400250026103A28BF78C1FBD8B0
:10018000520728BF30C148BF0B607047662903F093
:100190006483002070471FB500F022FB040000209C
:1001A000002103F099F8E0601FBD10B510BD00F00C
:1001B00017FC1146FFF7EFFF02F060FB00F035FC83
:1001C00003B4FFF7F2FF03BC00F078FC0948804756
:1001D00009480047FEE7FEE7FEE7FEE7FEE7FEE729
:1001E000FEE7FEE7FEE7FEE704480549054A064B41
:1001F000704700008D250008ED0000081801002060
:100200001807002018030020180300200FB41CB5A5
:10021000074B06AA7B4469460090059800F0C7FA90
:100220000020694600F0D6FA1CBC5DF814FB000003
:10023000BD0500002DE9F0474FF0000A894604464D
:10024000C0F820A02046E1688847002876D02528FD
:1002500006D0D4E901219047206A401C2062F1E7D2
:10026000E168204600258847C4F81CA00646002700
:10027000C4F818A02A2E09D0304603F025F838B368
:1002800004EB8708303EC8F8186019E059F8041BE1
:10029000204604EB87029161E1688847012F0646FA
:1002A00018D1E069002820DA25F020051DE0D8F8F3
:1002B000180000EB800006EB40003038C8F818004A
:1002C0002046E1688847064602F0FEFF0028EED18E
:1002D000012F0AD02E2E08D12046E16888477F1CC6
:1002E0000646022F45F02005C4DBA069002803DA8A
:1002F000404245F00105A061E80701D025F0100556
:10030000B6B1A6F14100192802D8203645F400659F
:100310004A463146204625604D46FFF737FF58B123
:10032000012806D0ED1D25F0070000F1080989E736
:1003300004E005F1040985E730468AE7206ABDE854
:10034000F08710B5431C02E010F8011B71B1810762
:10035000FAD14FF0013202C88C1A8C4314EAC21150
:10036000F9D0C01A0A0603D0C01E10BDC01A10BDB5
:100370000A0401D0801E10BD0902FCD0401E10BD31
:100380007047704770472DE9FF4F0C461E464FF0EF
:10039000FF378BB0D2E90001DDF860800A908A4611
:1003A000C1F30A5505B93D46002108464FF000004B
:1003B000BAF1000F00F4400005DA00EB80004FF4C2
:1003C000400101EA50004FEA9059B9F1010F00DDF8
:1003D000B9460A9850EA4A000ED044F61050A5F2E9
:1003E000FF3545432F14B8F1000F1ED07542291E6A
:1003F0001EDDC9F100021CE0B8F1010F4FF0000052
:1004000001D0302103E0F24305E02154401CB0420A
:10041000FBDB30460022002121540B99C1F80880F3
:10042000C1E900200FB0BDE8F08FBD1B6D1CDEE7F9
:100430004A4600DA694206A800F05CFA06AB93E887
:10044000070003AB83E8070050460A9902F060FBFF
:100450008DE80700A0F500501F3800900398002D8C
:100460000ADD42F21F014A460844002303A9039013
:10047000684602F0C9FD09E0A0F500504A461F3861
:10048000002303A90390684602F0D3FD8DE807001E
:100490000004000C03D04FF0FF30410800E010468C
:1004A000B8F1000F03D00022009215461EE0751E21
:1004B00005D400F099F9303262556D1EF9D5B34676
:1004C0000122084302D000227F1C04E0207830285B
:1004D00001D100227F1E002A099784D01DE0112D32
:1004E00007DA00F081F9303262556D1C50EA0102E2
:1004F000F5D1084302D00098C8B10EE00021681E73
:1005000005E0235C625C63542254401E491C814216
:10051000F7DBAB46A81B401E0990002004F80B0037
:100520000B98099AC0F80880C0E9002B7AE71126D9
:100530004FF0000857E72DE9F04F88460446D21DDA
:1005400022F0070191B0D1E90001CDE90A0102F0E2
:10055000A7FE02460B98C00F01D02D2007E02068AF
:10056000810701D52B2002E0202101EAC000032AE7
:10057000099001D0072A05DB03464146204600F0DA
:1005800079F90BE12078800601D5E06900E00620CA
:10059000B8F1650F814606D0B8F1660F18D0B8F1F2
:1005A000670F70D131E00020B9F1110F009001DB2D
:1005B000112301E009F101030AAA01A90CA8FFF720
:1005C000E2FEDDE90C70002609F10105834647E0F3
:1005D00001204B4600904FF000470AAA01A90CA841
:1005E000FFF7D1FEDDE90DB00C995D46002610B98C
:1005F00009F101000D18B9EB050003D4C0F1FF3675
:1006000009F10105A5EB09002BE0B9F1010F01DAB1
:100610004FF001090020B9F1110F0090484601DDAB
:10062000112300E003460AAA01A90CA8FFF7ABFEBC
:10063000DDE90C704D4600268346207800070AD479
:10064000AB4500DA5D4601A8012D04DD411911F822
:10065000011C302907D04F4502DA17F1040F04DAE4
:10066000012082460FE06D1EEEE7002F02DCED1B3D
:100670003E4403E0781CA84200DD7D1CB81B00F15D
:10068000010A4FF000472078000703D4AA4501DB98
:100690004FF0FF3A0021B7F1004F0DF143088DF8FC
:1006A000431024D002202B23002F01DA7F422D2378
:1006B0000A21021EA0F1010000DC5FB197FBF1FCF2
:1006C00097FBF1F201FB1C7C17460CF1300C08F88B
:1006D00001CDEEE7A8F1010003702188090501D5DD
:1006E000452100E06521A0F1010800F8011C0998EE
:1006F0000FA9A1EB0807FF1D00B10120411901EB73
:10070000EA70A1693844081A401EA0612078C0062A
:1007100002D42046AFF30080099828B1D4E9012122
:100720009047206A401C20622078C00622D52046CF
:10073000AFF300801EE0002E04DBB34502DD01A80C
:10074000805D00E03020D4E901219047206A401C00
:100750002062761CAAF101005FEA000A0AD100F0CB
:100760003FF8C0680168405CD4E901219047206AE5
:10077000401C2062281EA5F10105DCDC07E0D4E95D
:10078000012118F8010B9047206A401C2062381E96
:10079000A7F10107F3DC2046AFF30080032011B07E
:1007A00041E6000001694A1C02610878704700B503
:1007B0008FB0CDE901310021059105497944CDE99A
:1007C000031011466846FFF735FD0FB000BD00006D
:1007D000E5FFFFFF0A6802F8010B0A60704700009E
:1007E000004870473800002030B5B0F10A0271F1BE
:1007F00000034FEA900E4EEA817EB0EB0E0061EBF3
:1008000091014FEA101E4EEA017E10EB0E0041EB03
:1008100011114FEA102E4EEA016E10EB0E0041EB63
:1008200011214FEA104E4EEA014E10EB0E0041EB43
:100830001141401841F100014FEAD00040EA4170F7
:100840004FEAD1014FEA810444EA907410EB80052D
:1008500044EB01046D1944EB0404521BA3414FF017
:10086000000348BF0A3200D530BD401C41F10001F1
:1008700030BD00002DE9F0411F4604460326016803
:10088000072A01F4006004DB08B116A505E016A5EF
:1008900003E008B115A500E015A521F010002060C7
:1008A000A069C01EA0610FB1401EA0612046AFF339
:1008B00000804FB1D4E9012138469047206A401C9E
:1008C0002062C01C206206E0206AFAE7D4E9012118
:1008D00015F8010B9047761EF8D22046AFF3008042
:1008E000BDE8F0814E414E006E616E00494E4600FB
:1008F000696E66002DE9F047814616468AB0354894
:1009000078440DC88DE80D0032487844801C03AC53
:100910000DC884E80D0041F69B300844372190FB58
:10092000F1F290FBF1F5A5F1800501FB12041B3CEF
:1009300002D56442012000E00020DFF898A0804644
:100940000027FA44AAF1BE0A0EE0E0070AD03246B8
:10095000684607EB470101230AEB810102F069FBBE
:100960008DE8070064107F1C002CEED1194F7F44E6
:10097000AE3F19E0E80715D007EB04100DF1180A97
:1009800090E80E008AE80E00C068F04201D1981984
:1009900008903246012306A903A802F04AFB03ABE4
:1009A00083E807006D10641C002DE3D14FF00103B4
:1009B00032466946B8F1000F03A802D002F024FBCA
:1009C00001E002F036FBC9E90001C9F808200AB0CD
:1009D000BDE8F087D82F00000048704718000020BD
:1009E0007546FFF7F9FFAE4605006946534620F00D
:1009F0000700854618B020B5FFF7F6FBBDE820409C
:100A00004FF000064FF000074FF000084FF0000BCA
:100A1000AC46ACE8C009ACE8C009ACE8C009ACE839
:100A2000C00921F007018D46704710B50446AFF3A9
:100A300000802046BDE81040FFF7C2BB4FF0013CEC
:100A400050F8042B51F8043B9A4221D1A2EB0C033D
:100A5000934313EACC1317D150F8042B51F8043BFD
:100A60009A4215D1A2EB0C03934313EACC130BD19A
:100A700050F8042B51F8043B9A4209D1A2EB0C0325
:100A8000934313EACC13DBD04FF00000704700BF54
:100A9000D01A01BAB1FA81F101F0180122FA01F07D
:100AA000CB40DBB2C0B2C01AC1F120012CFA01F375
:100AB000D11A914311EAC311E6D1704701491820B8
:100AC000ABBEFEE72600020070470000FEE7000014
:100AD00070470000B0B5044600F018F9054640F232
:100AE0000000C2F200000078611C18BF044400BF7F
:100AF00000F00CF9401BA042FAD3B0BD2DE9F04F35
:100B000082B00E68002E00F0FD8041F20042C4F277
:100B10000102042340F2004E904208BF03234FF627
:100B2000FF7CC4F2010E009300240123C1F2100CDB
:100B30004FF0000A4FF0000944E000BF012704F025
:100B40000C030F229A402BEA020207FA03F34FEA42
:100B50009A051A4346F825204E6840F20C45F202E9
:100B6000DEF8082054BF22EA080242EA0802C4F272
:100B70000105CEF808202A68B30254BF22EA080211
:100B800042EA08022A60B303DEF8042054BF22EAD6
:100B9000080242EA0802F303CEF80420DEF800203F
:100BA0004FF0010354BF22EA080242EA0802CEF8DD
:100BB00000200E680AF1010A36FA0AF204F1040470
:100BC00000F0A08003FA0AFB16EA0B08F1D04E6889
:100BD000664511DC122E55D8DFE806F0340A444889
:100BE000545454545454545454545454544C500025
:100BF000D1F80C9046E000BF4FF6FF72C1F221021F
:100C000096420FDC0022C1F2110296421AD0002255
:100C1000C1F21202964215D00022C1F22102964280
:100C200010D02FE00022C1F2220296420AD0002208
:100C3000C1F23102964205D00022C1F23202964240
:100C400020D100BF8A684AB1012A14BFC0F814B08D
:100C5000C0F810B04FF0080914E000BF4FF00409CD
:100C600010E000BFCA6802F108090BE04FF000096C
:100C700008E000BFCA6802F1040903E0CA6802F193
:100C80000C0900BF22460646B8F5807F24BF203AF3
:100C9000043637680F25954027EA050509FA02F260
:100CA0002A433260CA79D2067FF583AF41F2180336
:100CB000C4F202031A68AEF57E7642F001021A60B1
:100CC0001A6802F001020192019A2AF0030256F812
:100CD00002B040F60002C4F20102904210D040F689
:100CE0000042C4F2010290423FF428AF41F20002F8
:100CF000C4F20102009F904208BF02271FE700BF15
:100D000000271CE702B0BDE8F08F000040F214108D
:100D1000C2F2000000687047002804BF012070473D
:100D2000F0B581B0044690F83D0028B9002084F861
:100D30003C00204600F092FB242084F83D0020680F
:100D4000016821F001010160016841F40041016086
:100D5000016821F40041016000F038FD636848F249
:100D6000A16CC0F2010C40F60011C0F23D016345D8
:100D70003CBF48F28041C0F21E01884202D20120ED
:100D800001B0F0BD4DF68361C4F21B31A0FB01122E
:100D90002168970CD1F804E04FF496762EF03F05C9
:100DA00045EA92454D60774348F638160D6AC0F221
:100DB0004106A7FB067625F03F07634538BF960C32
:100DC000721C3A430A62CA6948F2A0664CF6FF7781
:100DD000C0F20106B34222EA07020BD801385B00D9
:100DE000B0FBF3F001306FF31F30042898BF0420EC
:100DF0001BE000BFA768013857B119277B43B0FB40
:100E0000F3F001306FF31F3070B100F5804007E060
:100E100003EB4303B0FBF3F001306FF31F3018B165
:100E200000F5004001E000BF01201043C8610868E0
:100E3000D4E9072320F0C0001043184308608868F5
:100E400048F2FF3204F10C0790438CCF1843104353
:100E5000A6698860C86820F0FF0038433043C86046
:100E6000086840F00100086000202021206484F818
:100E70003D10206384F83E0001B0F0BD2DE9F0473D
:100E800084B0044600201F46164689460290FFF7AC
:100E90003DFF94F83D10202924D10546206800BF6D
:100EA000816989071AD5FFF731FF411B20681A298C
:100EB000F6D381698907F3D500202021206384F8C7
:100EC0003D1084F83E00216C41F02001216484F83B
:100ED0003C00022004B0BDE8F08700BF94F83C104D
:100EE000012903D1022004B0BDE8F087012184F874
:100EF0003C100168C90703D1016841F0010101609C
:100F00000168DDF8308021F400610160222184F85D
:100F10003D10102184F83E1000212164666267852F
:100F2000618D0227C0F201072185A7F10211E1625C
:100F3000E16A026811F5803F42F48062026018BFE6
:100F400001293DD1016841F48071016020464FF0D4
:100F5000011100224346009501F0C2F850B120680B
:100F60000068C00544BF4FF400702064012004B045
:100F7000BDE8F0872069B0F5804F27D149F0010026
:100F8000C0B2216842460861204639462B4601F02E
:100F90008DF90028EAD1208D02284BD001285FD09E
:100FA000002840F07380002003902068416903917D
:100FB000816903910399016841F40071016071E056
:100FC0000829BFD0216B1129BCD0BFE7062000EA59
:100FD000D916206806F1F0010161B91D204642468C
:100FE0002B4601F063F90028C0D120685FFA89F12F
:100FF00001612046394642462B4601F057F9002848
:10100000B4D1002003902068002241694346039137
:10101000816903910399016841F480710160204660
:101020004FF00111009501F05BF8002897D146F0D0
:10103000F100A6E72068016841F400610160EFF368
:10104000108072B600200390206841690391816985
:1010500003910399016821F48061016062B621E087
:101060002068016821F480610160EFF3108072B69E
:1010700000200390206841690391816903910399DD
:10108000016841F40071016062B60BE020680168FC
:1010900041F48061016000210391416903918069FD
:1010A00003900398208D002800F0CC8040F20809BE
:1010B0004BF2895A0237C2F20009C1F2F84A2326DC
:1010C0000EE000BF10690870606A218D0130606217
:1010D000481E2085618D01396185010400F0B280D0
:1010E00080B203280CD802282CD001284AD12046EF
:1010F00041462A4601F046F9002800F09F8035E776
:10110000204641462A4601F03DF900287FF42EAFE3
:101110002068616A00690870606A2268411C208D3D
:10112000616201382085638D013B638553695B07EC
:10113000D3D580B20328C5D1106820F48060106038
:10114000C0E700BF2046394600224346009500F024
:10115000C7FF00287FF40AAFEFF3108072B6206853
:10116000616A026842F40072026000690870606A95
:10117000218D01306062481E2085608D01386085B8
:1011800062B65BE02046394600224346009500F0F7
:10119000A7FF00287FF4EAAE2068016821F480618F
:1011A0000160EFF3108072B62068616A0069087010
:1011B000606A218D0130013960622185618D0139BC
:1011C0006185D9F80010C908A1FB0A12110A714300
:1011D0000291029901390291029900293ED02168B9
:1011E0004A6952071AD40299013902910299A9B3A6
:1011F00021684A69520711D4029901390291029972
:1012000061B321684A69520708D4029901390291F1
:10121000029919B321684A695207DAD50A6842F47B
:1012200000720A6009690170606A218D0130606294
:10123000481E2085608D0138608562B62068616A2D
:10124000006940E7202084F83D00002084F83E003B
:1012500084F83C0004B0BDE8F08700BF00202021E6
:10126000206384F83D1084F83E00216C41F0200199
:10127000216462B684F83C00012004B0BDE8F08728
:101280002DE9F04383B01E46174689460446FFF712
:101290003DFD94F83D10202924D10546206800BF6B
:1012A000816989071AD5FFF731FD411B20681A298A
:1012B000F6D381698907F3D500202021206384F8C3
:1012C0003D1084F83E00216C41F02001216484F837
:1012D0003C00022003B0BDE8F08300BF94F83C104E
:1012E000012903D1022003B0BDE8F083012184F875
:1012F0003C100168C90703D1016841F00101016098
:10130000016840F2020821F400610160212184F8A3
:101310003D10102184F83E1000212164676266852B
:10132000618DC0F201082185A8F10211E162E16A34
:101330000A9E11F5803F18BF01291DD1016841F4B3
:101340008071016020464FF0011100223346009564
:1013500000F0C6FE50B120680068C00544BF4FF4DD
:1013600000702064012003B0BDE8F0832069B0F56F
:10137000804F07D1FE2015E00829DFD0216B12290C
:10138000DCD0DFE7062000EAD9102168F0300861E0
:1013900008F10601204632462B4600F087FF002860
:1013A000E0D1FF20216800EA09000861204641469B
:1013B00032462B4600F07AFF0028D3D1002002905D
:1013C00020684169029180690290029806E000BF9E
:1013D000204631462A4600F025FE18BB208D68B312
:1013E000204631462A4601F015F8D8B9606A2168CE
:1013F000024612F8013B0B616262628D013A62851E
:10140000228D531E23854F697F07E1D51B04DFD052
:10141000437802300B616062608D01386085901EF8
:101420002085D5E7206C04289CD12068016841F410
:1014300000710160012003B0BDE8F08320680168FD
:1014400041F400710160202084F83D00002084F800
:101450003E0084F83C0003B0BDE8F08310B586B0D0
:1014600045F200410068C4F2000100228842049263
:1014700002D006B010BD00BF41F21804C4F202044D
:10148000206840F008002060206800F0080001900B
:101490000198C0200290122003900320059001F5CE
:1014A000384002A9FFF72AFB606840F40010606032
:1014B000606800F400100190019806B010BD0000B3
:1014C00040F2000040F21411C2F20000C2F200012A
:1014D00000780A68104408607047000080B542F246
:1014E0000000C4F20200016841F010010160032015
:1014F00000F07AF80F2000F005F800F027F800203F
:1015000080BD000070B540F20006C2F2000640F255
:1015100008013278C2F200014FF47A730968B3FB14
:10152000F2F20446B1FBF2F1084600F077FB0F2C13
:101530004FF0010508D838B94FF0FF30214600229E
:10154000002500F025F87460284670BD82B041F295
:101550001800C4F202000168022241F0010101609A
:10156000016801F0010101910199416841F0805148
:101570004160406800F08050009000980420C4F260
:101580000100016862F31A61016002B07047000057
:1015900010B54EF60C5CCEF2000CDCF80030C3F354
:1015A000022E8EF00704042C28BF0424BEF103038E
:1015B0004FF0FF3E0EFA04F438BF0023A1439940D8
:1015C0000EFA03F39A43114300F00F0200F1604357
:1015D0000901043A03F564436244002848BF02F15C
:1015E0000C03197010BD00004EF60C51CEF2000134
:1015F0000A684FF6FF031A4060F30A2242F0806047
:1016000040F0FD7008607047002804BF012070475B
:101610002DE9F04381B042F20008C4F2020804460A
:10162000D8F800000D4600F0070088420CD2D8F828
:10163000000020F007002843C8F80000D8F8000098
:1016400000F00700A8426CD1206841F2040981072C
:10165000C4F2020917D5410705D5D9F8001041F4A5
:10166000E061C9F80010010705D5D9F8001041F470
:101670006051C9F80010D9F80010A26821F0F001FB
:101680001143C9F80010C00742D1D8F8000000F09B
:101690000700A8420CD9D8F8000020F00700284322
:1016A000C8F80000D8F8000000F00700A84238D1C0
:1016B0002068410707D5D9F80010E26821F4E061FD
:1016C0001143C9F80010000708D5D9F800002169B6
:1016D00020F4605040EAC100C9F80000D9F80020A9
:1016E00002F00C00082841F20020C0F27A0051D12B
:1016F00043F60E13C2F38341C0F60003595CD203D4
:101700003CD440F60010C0F23D00484342E000BF28
:10171000606802280AD001282AD159F8041C8903DC
:1017200008D4012001B0BDE8F08300BF59F8041CC3
:101730008901F6D5D9F8001021F003010843C9F852
:101740000000FFF7E3FA064641F28837D9F80000B7
:10175000616800F00C00B0EB810F96D0FFF7D6FA6D
:10176000801BB842F2D9032001B0BDE8F08300BF6E
:1017700059F8041C8907D4D5DCE700BFD9F800204C
:1017800043F60C13C2F34042C0F600039A5C484390
:10179000B0FBF2F0D9F8001043F6F402C1F30311E4
:1017A000C0F60002515C40F2080220FA01F140F25A
:1017B0000400C2F200000068C2F200021160FFF7EC
:1017C000A1FE002001B0BDE8F083000040F2080057
:1017D00041F20401C2F20000C4F20201006809688B
:1017E00043F60412C1F30221C0F60002515CC84066
:1017F0007047000040F2080041F20401C2F200000C
:10180000C4F202010068096843F60412C1F3C22160
:10181000C0F60002515CC84070470000002804BFB9
:10182000012070472DE9F04182B00446007841F272
:101830000006C007C4F202060CD0706800F00C006D
:10184000042840F081803068800303D56068002858
:1018500000F04E81207880071BD5706810F00C0FC7
:1018600009D0706800F00C00082840F08B80706888
:10187000C00300F187803068800703D52069012804
:1018800040F036813068616920F0F80040EAC1001C
:1018900030602078000713D4207840072CD4E56905
:1018A000002D00F02081706800F00C00082840F046
:1018B000AF80012D40F00C81012002B0BDE8F08125
:1018C000A069002800F08C800020C4F24220012191
:1018D000C0F88014FFF71AFA054600BF706A800747
:1018E00000F1BA80FFF712FA401B0228F6D9032054
:1018F00002B0BDE8F08100BFF0695FEAC00808D41B
:10190000F06940F08050F061F06900F08050009084
:10191000009847F20007C4F200073868C0054DD4AC
:10192000386840F480703860FFF7F0F9054600BF72
:101930003868C00542D4FFF7E9F9401B6428F7D99D
:10194000032002B0BDE8F081706800F00C000828A8
:1019500003D17068C0033FF576AF6068002800F0DF
:101960000981B0F5A02F00F01D81B0F5803F00F097
:101970001D81306820F480303060306820F4802091
:1019800017E100BF2069002840F20000C4F24220A5
:1019900000F08C8001210160FFF7B8F9054600BF17
:1019A000306880073FF56EAFFFF7B0F9401B0228A3
:1019B000F6D9032002B0BDE8F08100BFE06800283E
:1019C00000F09A80052800F0B180012800F0B28074
:1019D000306A20F001003062306A20F00400ACE090
:1019E0000020C4F242200021C0F88014FFF78EF9D5
:1019F000054600BF706A80077FF54EAFFFF786F996
:101A0000401B0228F6D9032002B0BDE8F08100BFD8
:101A10000027C4F2422700203866FFF777F9022D2D
:101A200005460DD13068800140F1D680FFF76EF990
:101A3000401B02284FF00300F4D902B0BDE8F0814A
:101A4000306880014FD5FFF761F9401B02284FF045
:101A50000300F5D9F1E700BF40F20800C2F2000030
:101A6000006844F6D351C1F26201A0FB0101480AAB
:101A7000019000BF00BF0198411E002801913FF472
:101A80000BAF00BF0198411E002801913FF404AF45
:101A900000BF0198411E002801913FF4FDAE00BF38
:101AA0000198411E00280191E4D1F5E60021016072
:101AB000FFF72CF9054600BF306880077FF5E9AED7
:101AC000FFF724F9401B02284FF00300F4D9B4E7D4
:101AD0007068216A00F480328A4209D1616A00F498
:101AE0007010884204D1002002B0BDE8F08100BF30
:101AF000012002B0BDE8F081306A20F001003062C0
:101B0000306A20F004003062FFF700F9054641F228
:101B1000883700BF306A800722D5FFF7F7F8401BEF
:101B2000B8424FF00300F5D987E700BF306A40F0B4
:101B300004003062306A40F001003062FFF7E6F8DE
:101B4000054641F2883700BF306A800708D4FFF7A6
:101B5000DDF8401BB842F7D9032002B0BDE8F081A0
:101B6000B8F1000F3FF59BAEF06920F08050F061B6
:101B700095E600BF306820F480303060306820F493
:101B800080203060FFF7C2F8054600BF3068800350
:101B90007FF560AEFFF7BAF8401B64284FF00300F2
:101BA000F4D94AE7306840F480203060306840F46F
:101BB00080303060FFF7AAF8054600BF3068800328
:101BC0003FF548AEFFF7A2F8401B6428F6D9032082
:101BD00002B0BDE8F08100BF206AB0F5803F05D1BA
:101BE0007168A26821F40031114371607168626A02
:101BF00021F4741111430843706001203866FFF727
:101C000085F80446306880013FF56DAFFFF77EF838
:101C1000001B02284FF00300F4D90EE7411E0020FC
:101C2000B0EB116F1CBF012070474EF21002CEF2D4
:101C3000000251604EF62351CEF20001F0230B70EA
:101C40000721906011607047002804BF0120704791
:101C500010B5044690F8410028B9002084F84000EF
:101C6000204600F063F8242084F841002068D4E97D
:101C70000212C36823F40053C360036923F4405382
:101C80001A430261D4E904231143C268194341F2A3
:101C90000C639A431143C1604169A26921F4407108
:101CA000114343F60002C4F201029042416103D0A5
:101CB000FFF78CFD02E000BFFFF79CFDD4E9002395
:101CC000192148439900B0FBF1F048F21F5CC5F2BE
:101CD000EB1CA0FB0C314FF69C734909C0F6FF7357
:101CE00001FB0300322303EB0010A0FB0C03F020E8
:101CF00000EA531000EB0110C3F343110844906055
:101D00001069202120F490401061506920F02A00D1
:101D10005061D06840F40050D0600020606484F8C6
:101D2000411084F84210606310BD000070B586B0A9
:101D300040F60004C4F20104006804F54051002696
:101D40008842049602D006B070BD00BF41F2180070
:101D5000C4F20200016802AD41F4804101600168F3
:101D600001F4804101910199016841F00401016091
:101D70000068294600F00400019001984FF40070BB
:101D8000029002200390032005902046FEF7B6FE45
:101D90004FF48060CDE90206204629460496FEF7FE
:101DA000ADFE06B070BD00002DE9F04381B00446E1
:101DB00090F84100202840F0B180884600294FF07B
:101DC000010000F0D6801646002A00F0D2800020E4
:101DD000606421201D4684F84100FEF797FFA68429
:101DE000E684A1680646B1F5805F03D1206900282A
:101DF00000F0988047464FF00008E18C20680029E9
:101E000000F0968005F101090BE000BF47B317F819
:101E1000011B4160E18C0139E184E18C002900F073
:101E2000878001680906F1D4B9F1000F0AD0EDB13D
:101E3000FEF76CFF801BA84218D8206801680906CD
:101E4000F6D5E3E701680906E0D4016809065CBF3E
:101E500001685FEA0161D9D401680906F2D5D5E7C6
:101E600038F8021B00276FF35F21D2E7206850E8A3
:101E7000030F216820F4D07041E80302BAB3206850
:101E800050E8030F216820F4D07041E8030272B3D8
:101E9000206850E8030F216820F4D07041E8030265
:101EA0002AB3206850E8030F216820F4D07041E87D
:101EB0000302002ADAD11AE0206850E8050F2168F1
:101EC00020F0010041E80502DAB1206850E8050F72
:101ED000216820F0010041E8050292B1206850E835
:101EE000050F216820F0010041E805024AB1206891
:101EF00050E8050F216820F0010041E80502002AA2
:101F0000DAD1202084F8410084F84200002084F8CF
:101F10004000032001B0BDE8F08300BF022001B003
:101F2000BDE8F0830027E18C206800297FF46AAFC8
:101F30000168490619D4FDB1691C0DD10168490633
:101F400013D4016849065CBF01685FEA41610CD4A3
:101F500001684906F2D508E0FEF7D8FE801BA842CA
:101F60000AD8206800684006F6D5202084F8410091
:101F7000002001B0BDE8F083206850E8030F21681D
:101F800020F4D07041E80302002A3ED0206850E8D7
:101F9000030F216820F4D07041E80302AAB320683F
:101FA00050E8030F216820F4D07041E8030262B3C7
:101FB000206850E8030F216820F4D07041E8030244
:101FC000002AD9D121E000BF206850E8050F216820
:101FD00020F0010041E80502002A3FF492AF20689A
:101FE00050E8050F216820F0010041E80502002AB1
:101FF0003FF487AF206850E8050F216820F001000A
:1020000041E80502002A3FF47CAF206850E8050F44
:10201000216820F0010041E80502002AD4D170E7D0
:10202000FEE7000070B50368044653F8140F40073C
:1020300011D40E46481C29D086BB00BF1868400545
:1020400027D4FEF763FE236853F8140F400737D5F3
:1020500018684007F2D5002070BD00BF186840071F
:10206000F9D41868400514D418684007F3D41868E8
:1020700040050ED418684007EDD41868400508D410
:10208000186840074FF0000048BF70BD1868400551
:10209000E4D56FF480601860042012E0154603E078
:1020A00053F8140F4007D6D418684005F1D4FEF752
:1020B0002DFE401B2368B042F2D958694007EFD487
:1020C000202000212022216384F83D2084F83E1046
:1020D000226C10432064012084F83C1070BD000085
:1020E0002DE9F041054600681E46144601F47F02C2
:1020F00001338FB242D0DDF81880B2F5803F40F056
:10210000878040693840C01BB0FA80F04009A04287
:1021100040F0C8804EB924E040693840C01BB0FA96
:1021200080F04009A04240F0BD80FEF7EFFDA0EB3B
:1021300008012868B142EFD941693940C91BB1FA99
:1021400081F14909A142E7D19BE000BF40693840D5
:10215000C01BB0FA80F04009A0424FF0000040F0F0
:10216000A280FEF7D3FD286841693940C91BB1FA46
:1021700081F14909A142E9D183E000BFB2F5803F76
:1021800024D100BF41693940C91BB1FA81F1490925
:10219000A14240F0878041693940C91BB1FA81F101
:1021A0004909A14240F07E8041693940C91BB1FA1A
:1021B00081F14909A14275D141693940C91BB1FA80
:1021C00081F14909A142DDD06CE000BF816939404D
:1021D000C91BB1FA81F14909A14263D18169394032
:1021E000C91BB1FA81F14909A1425BD1816939402A
:1021F000C91BB1FA81F14909A14253D18169394022
:10220000C91BB1FA81F14909A142DFD04AE000BF00
:1022100080693840C01BB0FA80F04009A04241D12B
:1022200046B923E080693840C01BB0FA80F040090D
:10223000A04237D1FEF76AFDA0EB08012868B14241
:10224000F0D981693940C91BB1FA81F14909A1422C
:10225000E8D116E080693840C01BB0FA80F0400930
:10226000A0424FF0000018BFBDE8F081FEF74EFD20
:10227000286881693940C91BB1FA81F14909A14235
:10228000E8D100202021286385F83D1085F83E0024
:10229000296C41F02001296485F83C000120BDE84B
:1022A000F08100BF0020BDE8F0810000F0B581B0F2
:1022B000044600681D4643698FB203EA0701B9422C
:1022C00002D1002001B0F0BD4169164601323FD075
:1022D00049053FD4CEB100BFFEF718FD411B206871
:1022E000B14203D941693940B94215D141693940F8
:1022F000B942E6D041694905EED52BE04169394044
:10230000B942DED04169490524D4FEF7FFFC2068BC
:1023100041693940B942F1D0202023E04169394078
:10232000B942CED04169490514D441693940B94216
:10233000C7D0416949050DD441693940B942C0D07F
:102340004169490506D441693940B942B9D041696A
:102350004905E3D5016841F4007101606FF48061C3
:102360004161042000212022216384F83D2084F86B
:102370003E10226C1043206484F83C10012001B010
:10238000F0BD000070B504460068154650F8143FD3
:102390005A063DD40E4629B926E000BF50F8141F56
:1023A000490635D40168C90621D4FEF7AFFC411BAC
:1023B0002068B142F2D941694906EFD400202021BA
:1023C000206384F83D1084F83E00206C40F020002B
:1023D00018E000BFFEF79AFC206850F8141F490669
:1023E000ECD50168490613D40168C906F2D56FF02F
:1023F0001001016000202021206384F83D1084F842
:102400003E00206C2064002084F83C00012070BD58
:10241000002070BD70B50368044653F8140F000621
:1024200011D40E46481C29D086BB00BF1868400551
:1024300027D4FEF76BFC236853F8140F000637D53A
:1024400018680006F2D5002070BD00BF18680006AD
:10245000F9D41868400514D418680006F3D4186835
:1024600040050ED418680006EDD41868400508D45D
:10247000186800064FF0000048BF70BD186840059E
:10248000E4D56FF480601860042012E0154603E084
:1024900053F8140F0006D6D418684005F1D4FEF79F
:1024A00035FC401B2368B042F2D958690006EFD4CE
:1024B000202000212022216384F83D2084F83E1052
:1024C000226C10432064012084F83C1070BD000091
:1024D000FEE70000FEE700007047000070B584B022
:1024E000044640F22C60ADF80E0040F278004FF048
:1024F000FF35C2F200000DF10E0288210223009583
:10250000FEF7BEFE10B104B070BD00BF4FF4FA700C
:10251000FEF7E0FA40F27800C2F2000002AA882139
:1025200006230095FEF7AAFC0028ECD1BDF80800B0
:10253000BDF80B1000BA000C09BA0D0C01F038F808
:102540004FF60076C4F27F76314600F06FFF00212F
:10255000C4F22F3101F040F80021CCF2342100F018
:1025600003FF2060284601F023F8314600F05EFFAB
:102570000021C4F2C82101F02FF86060002004B0EF
:1025800070BD000070470000FEF79ABF7047000062
:10259000FEE7000080B582B040F60C00C1F61C00DA
:1025A000019040F278004FF0640CC2F2000001AAE2
:1025B0004E210423CDF800C0FEF762FE0120FEF795
:1025C00089FA0220FEF786FA02B080BD80B582B09B
:1025D00001F1400363F07F036FF07F02012808BF21
:1025E00081EA020323F00F00190100F10C02083008
:1025F0008DF8050001F10C008DF8060001F10800CE
:102600008DF8070040F278008DF804204FF0640C3C
:10261000C2F2000001AA4E210423CDF800C0FEF74B
:102620002FFE0120FEF756FA0220FEF753FA02B001
:1026300080BD000070B582B03220FEF74BFA40F248
:10264000780443F63C06C2F20004C0F60C0664258A
:1026500001AA20464E21042301960095FEF710FEA4
:102660000120FEF737FA1E20FEF734FA01AA2046B1
:102670004E21042301960095FEF702FE0120FEF78D
:1026800029FA1420FEF726FA01AA20464E21042337
:1026900001960095FEF7F4FD0120FEF71BFA0A20D3
:1026A000FEF718FA42F62C00C0F60C00019001AAC1
:1026B00020464E2104230095FEF7E2FD0120FEF79F
:1026C00009FA0A20FEF706FA42F62C00C8F68C003A
:1026D000019001AA20464E2104230095FEF7D0FD6B
:1026E0000120FEF7F7F90120FEF7F4F940F60C009F
:1026F000C8F68C00019001AA20464E2104230095C3
:10270000FEF7BEFD0120FEF7E5F90120FEF7E2F934
:1027100040F60C00C1F61C00019001AA20464E2193
:1027200004230095FEF7ACFD0120FEF7D3F901204C
:10273000FEF7D0F90120FEF7CDF940F60C00C6F601
:102740006C00019001AA20464E2104230095FEF75B
:1027500097FD0120FEF7BEF90120FEF7BBF940F618
:102760000C00CCF6CC00019001AA20464E21042397
:102770000095FEF785FD0120FEF7ACF902B070BDB3
:1027800080B582B000F0F001000101F10C020831C7
:102790008DF8051000F10C0108308DF8070040F2AB
:1027A00078008DF804208DF806104FF0640CC2F20A
:1027B000000001AA4E210423CDF800C0FEF760FD01
:1027C0000120FEF787F902B080BD000080B582B01D
:1027D00000F0F001000101F10D0209318DF8051042
:1027E00000F10D0109308DF8070040F278008DF8F6
:1027F00004208DF806104FF0640CC2F2000001AA0C
:102800004E210423CDF800C0FEF73AFD0220FEF76A
:1028100061F902B080BD0000F0B583B0017839B332
:1028200040F27804461E6427C2F2000402AD00BFE5
:1028300021F00F00090100F10D0209308DF80900A7
:1028400001F10D008DF80A0001F109008DF8082052
:102850008DF80B0020464E212A4604230097FEF7F0
:102860000FFD0220FEF736F9B17801360029DFD1DD
:102870000A20FEF72FF903B0F0BD000094B0FEF778
:102880002DFE00240120CDE90744CDE90544029046
:102890004FF480310690022502A8CDE90314CDE95A
:1028A00009510B94FEF7BAFF20B1EFF3108072B616
:1028B000FEE700BF0F20CDE90F05802011904FF4F7
:1028C0008060CDE912040FA80021FEF79DFE28B11B
:1028D000EFF3108072B600BFFEE700BF41F21800B0
:1028E000C4F20200016845F2004541F02001016098
:1028F0000168C4F2000501F020010291029901680B
:10290000002441F00401016001684FF4804201F0AD
:10291000040102910299016841F008010160006818
:1029200048F2A06100F008000290029840F278009E
:10293000C2F20000C0F20101C0E90051C0E9024446
:10294000C0E90424C0E906440462FEF7E5F928B1B1
:10295000EFF3108072B600BFFEE700BF40F2CC007C
:1029600005F56441C2F200000C234FF4165280E8D2
:102970001600C0E90344C0E90534C461FFF764F9F7
:1029800020B1EFF3108072B6FEE700BFFFF752FEF2
:102990004020FFF7F5FE40F20C04C2F2000420785C
:1029A000FFF714FF6078FFF711FFA078FFF70EFF25
:1029B000E078FFF70BFF2079FFF708FF6079FFF75A
:1029C00005FFA079FFF702FFE079FFF7FFFE012086
:1029D0000021FFF7FBFD39A0FFF71EFF01200F21AB
:1029E000FFF7F4FD0020FFF7F1FE02200021FFF7C2
:1029F000EDFD34A0FFF710FF02200F21FFF7E6FDE9
:102A000033A0FFF709FF43F61E1B0DF13C09C0F68A
:102A1000000B02AE0FF2BC0A09E000BFFFF7BAFDDF
:102A20005046FFF7F9FE4FF47A70FEF753F8484628
:102A3000FFF754FD0028F1D101200A21FFF7C6FD60
:102A40000F9800F065FC02460B4630465946FDF7EC
:102A5000DDFB3046FFF7E0FE02200A21FFF7B6FD5E
:102A6000109800F055FC02460B4630465946FDF7DB
:102A7000CDFB3046FFF7D0FEDDE90F0700F048FC44
:102A800005463846884600F043FC07460C4630466B
:102A900014A12A464346CDE90074FDF7B7FB304642
:102AA000FDF74FFC82B240F2CC00C2F2000031468A
:102AB0004FF0FF33FFF778F9B5E700BF54656D704D
:102AC0003A00000048756D69646974793A00000045
:102AD000250000004572726F722072656164696E34
:102AE000670000007B2274656D7065726174757299
:102AF00065223A20252E32662C202268756D696485
:102B0000697479223A20252E32667D0A0000000081
:102B10005FEA400C08BF91F0000F4FEA8C234FEAA8
:102B2000C12243EA51514FEA1C5018BF00F5F04052
:102B30004FEA300018BF41F000415FEA6C5C00F0E2
:102B40002980BCF1FF3F08BF40F080407047130C64
:102B500006BF12044FF0100C4FF0000C130E04BF10
:102B600012020CF1080C130F04BF12010CF1040C3B
:102B7000930F04BF92000CF1020CD30F04BF52005C
:102B80000CF1010C11464FF00002A0F11F00A0EB68
:102B90000C00704711F0004F08BF704731F0004142
:102BA0003FF4D5AF0B0C06BF09044FF0100C4FF0EB
:102BB000000C0B0E04BF09020CF1080C0B0F04BF34
:102BC00009010CF1040C8B0F04BF89000CF1020CFD
:102BD000CB0F04BF49000CF1010CCCF1200322FA09
:102BE00003F341EA030102FA0CF2A0EB0C0000F13E
:102BF0000100704723F07F4720F07F4C80EA0300FC
:102C000000F00040ACEB070303F57C5303F1FF0336
:102C10002DE9804909B44FEA144324EA03484FEAF6
:102C2000154B25EA0B4E0FF2042606EB13273E78D0
:102C300003FB0667C7F5000707FB06F64FEAD64613
:102C400006F102064FEA543707FB066CCCF1005C34
:102C50004FEA1C472CEA074C0CFB06F507FB06F471
:102C600004EB15464FEA961649085FEA320234BF74
:102C700000204FF000404FEAD13706FB07FC4FEA37
:102C80001C4C0CFB0BF7D21B03FB0CF761EB070191
:102C90000CFB0EF7B0EB074072EB17420CFB08F78A
:102CA00034BFA2EB0742B2EB074261EB17414FEA98
:102CB0000C444FEA910706FB07FC4FEA1C4C0CFB47
:102CC0000BF7B0EBC74072EB573203FB0CF734BF86
:102CD000A2EBC742B2EBC74261EB57310CFB0EF7D8
:102CE000B0EBC70072EB57720CFB08F734BFA2EBD6
:102CF000C702B2EBC70261EB57714FEA816141EA4B
:102D000092114FEA826242EA90124FEA806004EB2D
:102D1000CC04039F4FEAD13706FB07FC4FEA1C4C5B
:102D20000CFB0BF7D21B03FB0CF761EB07010CFB51
:102D30000EF7B0EB074072EB17420CFB08F734BFFD
:102D4000A2EB0742B2EB074261EB17414FEA8C5509
:102D500004EB9C244FEA910706FB07FC4FEA1C4C4E
:102D60000CFB0BF7B0EBC74072EB573203FB0CF7D1
:102D700034BFA2EBC742B2EBC74261EB57310CFB49
:102D80000EF7B0EBC70072EB57720CFB08F734BFBD
:102D9000A2EBC702B2EBC70261EB57714FEA816148
:102DA00041EA92114FEA826242EA90124FEA806051
:102DB00015EB4C2544F100044FEAD13706FB07FC24
:102DC0004FEA1C4C0CFB0BF7D21B03FB0CF761EB1F
:102DD00007010CFB0EF7B0EB074072EB17420CFB40
:102DE00008F734BFA2EB0742B2EB074261EB174191
:102DF0004FEA813141EA92414FEA823242EA9042FF
:102E00004FEA80304FEA0C7615EB1C1544F10004B4
:102E100048EA03434EEA0B484FF0000EB2EB080CB1
:102E200071EB030724BF624639464EEB0E0E4FF09E
:102E3000000B0018524149414BEB0B0BB2EB080C55
:102E400071EB03077BF1000B24BF624639464EEB62
:102E50000E0E4FF0000B0018524149414BEB0B0B8B
:102E6000B2EB080C71EB03077BF1000B24BF624649
:102E700039464EEB0E0E51EA020718BF46F0010626
:102E800016EB0E7655F1000254F1000103D5BDE8B2
:102E90008901BDE80088BDE88901BDE80048B61990
:102EA000524141EB0101A3F10103704780807F7E15
:102EB0007D7C7B7A797877767675747372717170B0
:102EC0006F6E6E6D6C6C6B6A6A6968686766666562
:102ED0006464636362616160605F5F5E5E5D5D5CF0
:102EE0005C5B5B5A5A595958585757565655555561
:102EF0005454535352525251515050504F4F4F4EC1
:102F00004E4D4D4D4C4C4C4B4B4B4A4A4A4949490E
:102F10004848484747474746464645454544444450
:102F20004443434343424242424141419C46002B79
:102F300030D477002BD04FEA37071CB503B44FF0DD
:102F400010004FF01001BAF1000F06D0BCF1000FD5
:102F5000DCBF40F0080040F008014FF000000FBC5B
:102F6000BDE810400BF1010BBBF1010F08BF5FEA98
:102F7000170722BF12F1010211F101014FF00041C8
:102F800043F1000300F0004043EA00007047F9D32A
:102F90005708D0E746EA06464FEA164613F1400FB7
:102FA0001FDD13F1200FDFBF16430A460021203337
:102FB0005B42BED0C3F1200746EA06464FEA1646FA
:102FC00002FA07F746EA070622FA03F2C3F12007DE
:102FD00001FA07F742EA070221FA03F14FF0000372
:102FE000A7E746EA020646EA06464FEA164646EADA
:102FF0000106BCBF46EA0646360C4FF000034FF010
:1030000000024FF0000194E72DE9804C70B49A461D
:10301000934691E8380007C831EA400C48BF34EACB
:10302000430C03D5FFF7E6FDFFF780FFF0BCBDE8DA
:10303000008C2DE9804C70B49A46934691E8380094
:1030400007C810F0804F08BF13F0804F03D100F085
:1030500005F8FFF76BFFF0BCBDE8008C20F07F4760
:1030600023F07F4C80EA030000F0004007EB0C03E4
:10307000A3F57C53A3F1FE0392F0000F00F0B380A0
:1030800095F0000F00F077802DE901494FEA1140DB
:1030900021EA00484FEA144624EA064700FB06FCF2
:1030A00008FB06F607FB08F818EB06484CEB164C35
:1030B00000FB07F718EB07484CEB17404FEA124BA1
:1030C00022EA0B4E4FEA154625EA06470BFB06FCA3
:1030D0000EFB06F607FB0EFE1EEB064E4CEB164CE7
:1030E0000BFB07F71EEB074E4CEB174B18EB0B08CF
:1030F00040F1000018EB0E0B58EB000840F1000007
:103100008F1A4FF000014FF000063CBFC943661B09
:1031100014BFB5EB040C00213CBFC943F61B4FEABA
:10312000174427EA04454FEA1C472CEA074C04FBE6
:10313000076205FB07F70CFB05F616EB074642EBAB
:10314000174204FB0CFC16EB0C4642EB1C421BEB3B
:10315000060658EB020241414EEA8E0E46EA9E06F2
:1031600001D5BDE80189B619524141EB0101A3F136
:103170000103BDE801894FEA144524EA05464FEAF8
:10318000114721EA074C05FB07F406FB07F70CFB88
:1031900006F111EB074144EB174405FB0CFC11EB66
:1031A0000C4144EB1C444FEA124722EA074C05FB52
:1031B00007F206FB07F70CFB06F616EB074642EB99
:1031C000174205FB0CFC16EB0C4642EB1C456A183B
:1031D00054F1000148BF7047B619524141EB01015B
:1031E000A3F10103704795F0000F37D04FEA114269
:1031F00021EA02464FEA144724EA074C02FB07F192
:1032000006FB07F70CFB06F414EB074441EB1741F0
:1032100002FB0CFC14EB0C4441EB1C414FEA15473C
:1032200025EA074C02FB07F506FB07F70CFB06F641
:1032300016EB074645EB174502FB0CFC16EB0C465C
:1032400045EB1C42121951F1000148BF7047B619F5
:10325000524141EB0101A3F1010370474FEA1445CC
:1032600024EA05464FEA114721EA074C05FB07F11E
:1032700006FB07F70CFB06F212EB074241EB174186
:1032800005FB0CFC12EB0C4251EB1C414FF000060D
:1032900048BF7047921841EB0101A3F10103704749
:1032A000490050EAC12018BF04204A0D18BF40F061
:1032B000010040F2FF72B2EB515F08BF40F0020024
:1032C000012808BF0520704730380A2801D20120A4
:1032D000704700207047000010B500290AD0087818
:1032E000002807D005487844FDF7A8FB002801D046
:1032F000002010BD0248784410BD00005E060000AA
:10330000560600000808A0F500114FEA3101704789
:1033100043004FEAD30C4FEA3C0C43401FBF400729
:103320000CF1605113F0FE4F70471CF0006F03D199
:103330000CF00041002070470CF0004343EA50704D
:1033400040EACC0010B500F0C8F900BF00000092C0
:103350004FEA0001FFF7D6BF4FF00041A1F5002171
:103360004FF000007047000090EA010F48BF81F065
:10337000004100F10482421A3CBF801A89184FEACA
:10338000D052A2EBD1534FF07F4C1CEA410F18BF33
:103390009CEA026F00F03B804FF0004C4CEA0020AA
:1033A0004CEA012121FA03FC10EB0C0C1ED202F1B5
:1033B000FF325FEA1C2040EBC25038BF70471CF060
:1033C0007F0F4FEA400C18BFBCF17F4F38BF7047EA
:1033D000C3F12003994008BF20F00100BCF17F4FEA
:1033E00038BF7047A0F1C04000F0BDB94FEA3C00C3
:1033F000000A40EBC25028BF1CF0FF0F4FEA400C00
:10340000E6D018BFBCF17F4F38BF7047EAE79CEAAF
:10341000026F05D010EA5C0F08BF00F00040704753
:1034200010B500F05AF900BF64FBBE3E4FF47F0CAC
:103430001CEAD0121EBF1CEAD11392EA0C0F93EAC9
:103440000C0F00F0858090EA010F48BF42F48072B3
:1034500040F4000C41F400002CF07F4120F07F404C
:1034600000B5A2EB030281420FF2081CACEB504EF8
:103470009EF800E0C0F100004FEA4E0E00FB0EFC8B
:1034800038BF49004FEA2C1C0CFB0EF34FEACE1E4E
:103490000EEB635E4FEA112C0EFB0CFC4FEAC121D0
:1034A0004FEA1C5300FB031102F5FA024FEA112CFC
:1034B0000EFB0CFC4FEA01314FEADC4C00FB0C1117
:1034C00042EB2242C14228BF09184CEB03335DF89E
:1034D00004EB10EB410143EBC250B2F57C0F38BF57
:1034E000704729D512F0F00F1CBF00F1C04000F06A
:1034F00000407047008182838485868788898B8C11
:103500008D8E8F919293959697999A9C9D9FA0A24C
:10351000A3A5A7A8AAACAEB0B2B3B5B7B9BCBEC09C
:10352000C2C5C7C9CCCED1D4D7D9DCDFE2E6E9EC3D
:10353000F0F3F7FAFE0000004FEA400C0CF1807C3B
:10354000BCF17E4F28BF7047B0F1C04000F00BB90E
:103550000CEAD11390EA010F48BF42F48072624531
:1035600038BF634507D213F47F0F16D080EA0100FD
:1035700000F00040704710B500F0AFF8097EFC3E47
:1035800000F005B880EA010000F00040704780EAD2
:10359000010000F0004000F0E6B812F47F0F04BF15
:1035A0000248704780EA010000F0DDB80000C07FEB
:1035B000B0FA80F310FA03F2C3F19D030AD0D905E3
:1035C00001EB1220530638BF704700F1010008BF1D
:1035D00020F00100704700004FF47F0C1CEAD0126D
:1035E0001EBF1CEAD11392EA0C0F93EA0C0F00F0F5
:1035F000478090EA010F48BF42F480724FF0004CC0
:103600004CEA00204CEA012102EB0302A0FB01136B
:10361000A2F50002002918BF43F001035B0028BF98
:103620004FEA330342EB22425FEA132C4CEBC250C9
:103630002EBFBCEB436FB2F57C0F70474FEA036CB3
:10364000BCF1004F08BF20F00100B2F57C0F38BF7D
:1036500070470BD582F0FF0212F5803FC8BF70475C
:1036600000F1C040D8BF00F00040704700F5000CEA
:103670005FEA4C0C48BF7047B0F1C04000F073B82F
:103680000CEAD11390EA010F48BF42F48072624500
:1036900038BF634504D280EA010000F00040704763
:1036A00010B500F01AF800BF8900013E00F007B81D
:1036B00000F009B85FEA410C5FEA1C6C08D080EAB0
:1036C000010000F050B85FEA400C5FEA1C6CF6D1D4
:1036D0004FF00040A0F5800070470EF1020E2EF072
:1036E000030E5EF8044B244204D44FEA4102B2F1C7
:1036F0007F4F11D84FEA4003B3F17F4F0CD80ED162
:103700004FEAD07C0CEB4C0C0CF1020CB2F17F4F69
:1037100008BF4CEBD17C04E04FF0080C01E04FEA0D
:10372000D17C0CEB4C0324FA03F404F00704B4F14D
:10373000040C06D20EEB840CBDE810404CF0010CDA
:103740006047DFE80CF0070802024FF00040A0F5E8
:10375000800010BD0846420018BFD2F1807288BFB9
:1037600000F0004010BDFF2141EAD050C005704775
:1037700090EA010F48BF81F000413FF5FCAD421ACD
:1037800004D882F00042A0EB020011444FEAD0526C
:10379000A2EBD1534FF07F4C1CEA410F18BF9CEABB
:1037A000026F4AD04FF0004C4CEA00204CEA012155
:1037B00021FA03FCB0EB0C0C0FD412F0FE0F36D044
:1037C0005FEA4C001DD5001240EBC25038BF704775
:1037D0001CF03F0F18BF70470BE05FEA1C20A2F1FE
:1037E000010240EBC25038BF70471CF07F0F18BF7A
:1037F0007047C3F12003994014BF401E20F0010020
:1038000070474FEA1223800808BF7047B0FA80FC67
:10381000A2EB0C02CCF1280C60FA0CF093EA122F08
:1038200004BF00EBC25070474FEAC3707047130AE1
:103830005FEADC1008BF7047F6E79CEA026F04D02D
:1038400010EA5C0F08BF0020704710B5FFF745FF76
:1038500040DFF63E81F000407047FCF76CBE000090
:1038600002400000000000A0000000000540000031
:10387000000000C8000000000C4000000000409C58
:1038800000000000194000000020BCBE0000000045
:1038900034400000BFC91B8E00000004B54000008A
:1038A000504BCFD06607E2CF010000006C41000012
:1038B0003E8251AADFEEA73401000000D942000089
:1038C000DCB5A0E23A301F97FFFFFFFFB4450000D0
:1038D000FD25A0C8E9A3C14FFFFFFFFFFF3F000088
:1038E0000000008000000000FF3F0000000000809A
:1038F00000000000000000000000000001020304BE
:103900000607080900000000010203040102020387
:103910000405060708090A0B0C0D0E0F1010252EC2
:103920003266000060390008000000201800000026
:103930005001000878390008180000200007000036
:10394000700100081C00000043000000F8FFFFFFAA
:103950000C0000000E0000000F0000002E00000010
:1039600001000000100000000024F4001A1D0404EF
:08397000040405020000000040
:04000005080000ED02
:00000001FF
